{
  "contractName": "MeetupEvent",
  "abi": [
    {
      "constant": true,
      "inputs": [],
      "name": "creator",
      "outputs": [
        {
          "name": "",
          "type": "address"
        }
      ],
      "payable": false,
      "stateMutability": "view",
      "type": "function"
    },
    {
      "constant": true,
      "inputs": [],
      "name": "costOfEvent",
      "outputs": [
        {
          "name": "",
          "type": "uint256"
        }
      ],
      "payable": false,
      "stateMutability": "view",
      "type": "function"
    },
    {
      "constant": false,
      "inputs": [
        {
          "name": "_name",
          "type": "string"
        }
      ],
      "name": "rsvpMe",
      "outputs": [],
      "payable": true,
      "stateMutability": "payable",
      "type": "function"
    },
    {
      "constant": true,
      "inputs": [],
      "name": "owner",
      "outputs": [
        {
          "name": "",
          "type": "address"
        }
      ],
      "payable": false,
      "stateMutability": "view",
      "type": "function"
    },
    {
      "constant": true,
      "inputs": [
        {
          "name": "",
          "type": "uint256"
        }
      ],
      "name": "rsvpList",
      "outputs": [
        {
          "name": "",
          "type": "address"
        }
      ],
      "payable": false,
      "stateMutability": "view",
      "type": "function"
    },
    {
      "constant": true,
      "inputs": [],
      "name": "eventCap",
      "outputs": [
        {
          "name": "",
          "type": "uint256"
        }
      ],
      "payable": false,
      "stateMutability": "view",
      "type": "function"
    },
    {
      "constant": true,
      "inputs": [],
      "name": "dateOfEvent",
      "outputs": [
        {
          "name": "",
          "type": "uint256"
        }
      ],
      "payable": false,
      "stateMutability": "view",
      "type": "function"
    },
    {
      "constant": true,
      "inputs": [
        {
          "name": "_address",
          "type": "address"
        }
      ],
      "name": "getAttendeeInfo",
      "outputs": [
        {
          "name": "",
          "type": "uint256"
        },
        {
          "name": "",
          "type": "string"
        }
      ],
      "payable": false,
      "stateMutability": "view",
      "type": "function"
    },
    {
      "constant": true,
      "inputs": [
        {
          "name": "_address",
          "type": "address"
        }
      ],
      "name": "isRsvped",
      "outputs": [
        {
          "name": "isIndeed",
          "type": "bool"
        }
      ],
      "payable": false,
      "stateMutability": "view",
      "type": "function"
    },
    {
      "constant": true,
      "inputs": [
        {
          "name": "",
          "type": "address"
        }
      ],
      "name": "rsvpData",
      "outputs": [
        {
          "name": "balance",
          "type": "uint256"
        },
        {
          "name": "name",
          "type": "string"
        },
        {
          "name": "isRsvped",
          "type": "bool"
        }
      ],
      "payable": false,
      "stateMutability": "view",
      "type": "function"
    },
    {
      "constant": true,
      "inputs": [],
      "name": "getAttendeeAddresses",
      "outputs": [
        {
          "name": "",
          "type": "address[]"
        }
      ],
      "payable": false,
      "stateMutability": "view",
      "type": "function"
    },
    {
      "constant": false,
      "inputs": [],
      "name": "ownerWithdrawal",
      "outputs": [],
      "payable": false,
      "stateMutability": "nonpayable",
      "type": "function"
    },
    {
      "inputs": [
        {
          "name": "_priceInWei",
          "type": "uint256"
        },
        {
          "name": "_owner",
          "type": "address"
        },
        {
          "name": "_cap",
          "type": "uint256"
        },
        {
          "name": "_dateAsUnixTimestamp",
          "type": "uint256"
        }
      ],
      "payable": false,
      "stateMutability": "nonpayable",
      "type": "constructor"
    },
    {
      "anonymous": false,
      "inputs": [
        {
          "indexed": true,
          "name": "_from",
          "type": "address"
        },
        {
          "indexed": false,
          "name": "_name",
          "type": "string"
        },
        {
          "indexed": false,
          "name": "_value",
          "type": "uint256"
        }
      ],
      "name": "EventRsvp",
      "type": "event"
    },
    {
      "anonymous": false,
      "inputs": [
        {
          "indexed": true,
          "name": "_from",
          "type": "address"
        },
        {
          "indexed": false,
          "name": "_value",
          "type": "uint256"
        }
      ],
      "name": "EventOwnerWithdrawal",
      "type": "event"
    },
    {
      "anonymous": false,
      "inputs": [
        {
          "indexed": true,
          "name": "_sender",
          "type": "address"
        },
        {
          "indexed": false,
          "name": "error",
          "type": "bytes32"
        }
      ],
      "name": "Error",
      "type": "event"
    }
  ],
  "bytecode": "0x6060604052341561000f57600080fd5b60405160808061093c8339810160405280805191906020018051919060200180519190602001805191505042811161004657600080fd5b60008054600160a060020a03338116600160a060020a031992831617909255600395909555600180549490911693909416929092179092556002919091556004556108a6806100966000396000f300606060405236156100b75763ffffffff7c010000000000000000000000000000000000000000000000000000000060003504166302d05d3f81146100bc57806310c566e5146100eb5780631dd541c7146101105780638da5cb5b146101585780639063c2f61461016b578063a3dcb51e14610181578063ba46cfe914610194578063bb387ae6146101a7578063d248e2cf14610244578063e93fef0c14610277578063efd64a7b1461032e578063f27a044714610394575b600080fd5b34156100c757600080fd5b6100cf6103a7565b604051600160a060020a03909116815260200160405180910390f35b34156100f657600080fd5b6100fe6103b6565b60405190815260200160405180910390f35b61015660046024813581810190830135806020601f820181900481020160405190810160405281815292919060208401838380828437509496506103bc95505050505050565b005b341561016357600080fd5b6100cf610539565b341561017657600080fd5b6100cf600435610548565b341561018c57600080fd5b6100fe610570565b341561019f57600080fd5b6100fe610576565b34156101b257600080fd5b6101c6600160a060020a036004351661057c565b60405182815260406020820181815290820183818151815260200191508051906020019080838360005b838110156102085780820151838201526020016101f0565b50505050905090810190601f1680156102355780820380516001836020036101000a031916815260200191505b50935050505060405180910390f35b341561024f57600080fd5b610263600160a060020a0360043516610654565b604051901515815260200160405180910390f35b341561028257600080fd5b610296600160a060020a0360043516610675565b60405183815281151560408201526060602082018181528454600260001961010060018416150201909116049183018290529060808301908590801561031d5780601f106102f25761010080835404028352916020019161031d565b820191906000526020600020905b81548152906001019060200180831161030057829003601f168201915b505094505050505060405180910390f35b341561033957600080fd5b610341610696565b60405160208082528190810183818151815260200191508051906020019060200280838360005b83811015610380578082015183820152602001610368565b505050509050019250505060405180910390f35b341561039f57600080fd5b6101566106ff565b600054600160a060020a031681565b60035481565b600254156103d457600254600654106103d457600080fd5b6103dd33610654565b156103e757600080fd5b60035434146103f557600080fd5b600160a060020a03331660009081526005602052604090203481556001018180516104249291602001906107a7565b50600160a060020a0333166000908152600560205260409020600201805460ff1916600190811790915560068054909181016104608382610825565b506000918252602090912001805473ffffffffffffffffffffffffffffffffffffffff191633600160a060020a03169081179091557f3bfd95ee82f706af538f46c6662da21244d6225ef24fd3ff21c12d68b30f4a3782346040518080602001838152602001828103825284818151815260200191508051906020019080838360005b838110156104fb5780820151838201526020016104e3565b50505050905090810190601f1680156105285780820380516001836020036101000a031916815260200191505b50935050505060405180910390a250565b600154600160a060020a031681565b600680548290811061055657fe5b600091825260209091200154600160a060020a0316905081565b60025481565b60045481565b600061058661084e565b600160a060020a03831660009081526005602090815260409182902080546001918201805491949093849360029084161561010002600019019093169290920491601f8301819004810201905190810160405280929190818152602001828054600181600116156101000203166002900480156106445780601f1061061957610100808354040283529160200191610644565b820191906000526020600020905b81548152906001019060200180831161062757829003601f168201915b5050505050905091509150915091565b600160a060020a031660009081526005602052604090206002015460ff1690565b60056020526000908152604090208054600282015490916001019060ff1683565b61069e61084e565b60068054806020026020016040519081016040528092919081815260200182805480156106f457602002820191906000526020600020905b8154600160a060020a031681526001909101906020018083116106d6575b505050505090505b90565b60045460009042101561071157600080fd5b60015433600160a060020a0390811691161461072c57600080fd5b50600154600160a060020a0330811631911681156108fc0282604051600060405180830381858888f19350505050151561076557600080fd5b600154600160a060020a03167f2687f3ebe7af4e9bc31590fc4b8d7ddc978afe768e4a6268fee90f8edc04847b8260405190815260200160405180910390a250565b828054600181600116156101000203166002900490600052602060002090601f016020900481019282601f106107e857805160ff1916838001178555610815565b82800160010185558215610815579182015b828111156108155782518255916020019190600101906107fa565b50610821929150610860565b5090565b81548183558181151161084957600083815260209020610849918101908301610860565b505050565b60206040519081016040526000815290565b6106fc91905b8082111561082157600081556001016108665600a165627a7a72305820f5b426d455c4841e79e16908ced48101850ed9565e2ac004e78b9364adfd20950029",
  "source": "pragma solidity ^0.4.0;\n\ncontract MeetupEvent {\n\n    address public creator;\n    address public owner;\n    uint public eventCap;\n    uint public costOfEvent;\n    uint public dateOfEvent;\n    struct rsvpSingle {\n        uint balance;\n        string name;\n        bool isRsvped;\n    }\n    mapping (address => rsvpSingle) public rsvpData;\n    address[] public rsvpList;\n\n    event EventRsvp(\n        address indexed _from,\n        string _name,\n        uint _value\n        );\n\n    event EventOwnerWithdrawal(\n        address indexed _from,\n        uint _value\n        );\n\n    event Error(address indexed _sender, bytes32 error);\n\n    modifier mustHaveSpace() {\n        if(eventCap != 0) require(rsvpList.length < eventCap);\n        _;\n    }\n\n    modifier isEnded() {\n        // require(now >= dateOfEvent + 3 hours);\n        require(now >= dateOfEvent); // while testing...\n        _;\n    }\n\n    modifier isOwner() {\n        require(owner == msg.sender);\n        _;\n    }\n\n    function isRsvped(address _address) public view returns(bool isIndeed) {\n      return rsvpData[_address].isRsvped;\n    }\n\n    function MeetupEvent(uint _priceInWei,\n                        address _owner,\n                        uint _cap,\n                        uint _dateAsUnixTimestamp)\n      public {\n        require(_dateAsUnixTimestamp > now);\n        creator = msg.sender;\n        costOfEvent = _priceInWei;\n        owner = _owner;\n        eventCap = _cap;\n        dateOfEvent = _dateAsUnixTimestamp;\n    }\n\n    function rsvpMe(string _name) public payable mustHaveSpace {\n        require(!isRsvped(msg.sender));\n        require(msg.value == costOfEvent);\n        rsvpData[msg.sender].balance = msg.value;\n        rsvpData[msg.sender].name = _name;\n        rsvpData[msg.sender].isRsvped = true;\n        rsvpList.push(msg.sender);\n        EventRsvp(msg.sender, _name, msg.value);\n    }\n\n    function getAttendeeAddresses() view public returns (address[]) {\n        return rsvpList;\n    }\n\n    function getAttendeeInfo(address _address) view public returns (uint, string) {\n        return (rsvpData[_address].balance, rsvpData[_address].name);\n    }\n\n    function ownerWithdrawal() public isEnded isOwner {\n        uint _balance = this.balance;\n        owner.transfer(_balance);\n        EventOwnerWithdrawal(owner, _balance);\n    }\n}\n",
  "sourcePath": "/Users/ed/Development/meetup-app/contracts/MeetupEvent.sol",
  "schemaVersion": "1.0.0",
  "updatedAt": "2017-11-22T17:10:52.671Z"
}